:020000040000FA
:02000000452A8F
:080008002000EC3095002100FE
:1000100000308D002200FF308D0002225321172175
:1000200035182B202F2139222000A0308B0008000A
:1000300001340034A8340234203406340C34003443
:10004000820701344F34123406344C3424342034C3
:100050000F340034043475087606003C031C342049
:100060003F209220F72008007508F6000130F800C4
:100070008030F9000030FA00FF30FB0008007708FC
:100080007806003C031C45284A287708003C031CDE
:1000900051284F287708003C031C73285528FA0A7A
:1000A0008F28F90A0030FB008F28FA0A7A08023CF0
:1000B00003185B285E280030F9008F287B087E0239
:1000C0000318632869282C000130AA007D0AFA0071
:1000D0008F287D087A06003C031C8F286F282C008F
:1000E0000230AA008F28F90AFB0A7908023C03189B
:1000F0007A287D280030FA008F287D087A020318BC
:10010000822885287C0AF90085287C087906003C2D
:10011000031C8F288B282C000030AA008F2877081A
:10012000F80008002C002A082B06003C031C99202C
:10013000F6287508003C0318C4207508013C031814
:10014000C9207508023C0318CE207508033C03182B
:10015000D3207508043C0318D8207508053C031803
:10016000DD207508063C0318E2207508073C0318DB
:10017000E7207508083C0318EC207508093C0318B3
:10018000F1200030FF00F6282C00A00A2008FF0014
:10019000F6282C00A10A2108FF00F6282C00A20A4C
:1001A0002208FF00F6282C00A30A2308FF00F628E7
:1001B0002C00A40A2408FF00F6282C00A50A250814
:1001C000FF00F6282C00A60A2608FF00F6282C00BF
:1001D000A70A2708FF00F6282C00A80A2808FF0015
:1001E000F6282C00A90A2908FF00F628080075083F
:1001F000FF3C031C0221FC20FE30F000F100F20065
:10020000F3001529F5082020F0002C00AA08202072
:10021000F100FF0807392020F300FF36FF36FF36D4
:10022000FF0807392020F200152908000800770888
:10023000003C03181C2108002E083606003C031C55
:10024000222108002C002E08B60008000030F7001C
:100250002C002F08AE0008000030F00008002C0031
:10026000BB302E06003C03182C2108002C00FF3068
:10027000AE000130F70008002C00FF30AE0008008F
:100280002C0070302F06003C031826212C00B830BB
:100290002F06003C031826212C00DC302F06003CE2
:1002A00003182621080020000030F7002C002E083B
:1002B000AF002F1CB10AAF1CB10A2F1DB10AAF1D30
:1002C000B10A2F1EB10AAF1EB10A2F1FB10AAF1F0C
:1002D000B10A0330B10203183C210F302F04FF3A5A
:1002E000003C03183621B10140210800F030AE0077
:1002F000B235B235B235B2353208AE053308AE0488
:100300000800210000308D002200FF308D00210008
:100310000F308D0020000D082C00B400F030B40424
:1003200034082C00B205341C3310B41C3310341DB7
:100330003310B41D3310080021000E308D00210051
:1003400000308D0020000E308D0021000E308D0019
:1003500020000D082C00B400F130B4043408B205BC
:10036000341CB310B41CB310341DB310B41DB3103F
:100370000800210000308D002200FD308D0021009A
:100380000C308D0020000D082C00B400F330B404B4
:1003900034082C00B2052C00341C3311B41C33116A
:1003A000341D3311B41D331108002200FF308D00BD
:1003B000210000308D002000FF308D002200FB3036
:1003C0008D00210008308D0020000D082C00B400A5
:1003D000F730B40434082C00B205341CB311B41C3B
:1003E000B311341DB311B41DB31108002C000F302C
:1003F000B3002C000F30B2002C000130B5000130EA
:10040000B00008002C0035188121B5189C21351941
:10041000B921B519D521B535351A7621351AF62108
:1004200008000030AD0F2D1A112AAD010800083068
:10043000F4000800700822008C00220008308E00B2
:100440000800710822008C00220004308E00080091
:100450002000720822008C00220002308E0008006A
:10046000730822008C00220001308E001030F4004E
:10047000080022008E01F4191A2274192122F4189E
:10048000282274183022F436080023008D016B30C6
:10049000210099002000E7309500210007309500E9
:1004A000200080308B00210001308D0022003E3082
:1004B0008D00210021308D002400FF308D000030A0
:1004C00021008C00003021008E002C000F30B30082
:1004D0000F30B2000130B0000130B5000130F7003C
:1004E000FF30AE002000FF30F500FF30AF00F130EC
:1004F000F0008130F100C130F200B030F30008307C
:10050000F4000730F6000030F8008030F9000030C9
:10051000FA00FF30FB000A30FE001430FC008E3081
:10052000FD002C000430AA000430AB000130FF00B5
:100530002C000030A000A100A200A300A400A50090
:10054000A600A700A800A9002000A0308B00A72AC1
:1005500000340034003400340034003400340034FB
:080560000034003400340034C3
:020000040001F9
:02000E00E43FCD
:02001000FF3FB0
:00000001FF
