:020000040000FA
:0400000080310F2814
:040004000034003490
:080008006430F0062200003014
:100010008C0620008B10270000309600090023007A
:100020008D0120000B178B170B168B108B152100E1
:100030008C01210001308D00270014149416270034
:1000400015109516270000309600210015178630F0
:10005000F0004B3021009900003021008C0020007E
:1000600000309500210047309500220000308C00C0
:10007000220010308D0020007008950020000B1128
:10008000220010308D00813022008C0008308D005D
:10009000833022008C0004308D00873022008C00D9
:1000A00002308D008F3022008C0020000B1D55285F
:0200B0003B28EB
:020000040001F9
:02000E00E43FCD
:02001000FF3FB0
:00000001FF
